S00B00004D4C582E7372656328
S11300000C94B6000C94DE000C94DE000C94DE001C
S11300100C94DE000C94DE000C94DE000C94DE00E4
S11300200C94DE000C94DE000C94DE000C94470269
S11300300C94DE000C94DE000C9422020C94DE007E
S11300400C94DE000C94DE000C94DE000C94DE00B4
S11300500C94DE000C94DE000C94DE000C94DE00A4
S11300600C94DE000C94DE006E616E00696E660016
S113007000407A10F35A00A0724E18090010A5D45B
S1130080E80000E87648170000E40B54020000CAB8
S11300909A3B000000E1F5050000809698000000FE
S11300A040420F000000A08601000000102700005D
S11300B00000E803000000006400000000000A00E3
S11300C0000000000100000000002C76D888DC67E6
S11300D04F0823DFC1DFAE59E1B1B796E5E3E4533E
S11300E0C63AE651997696E8E6C28426EB898C9B5B
S11300F062ED407C6FFCEFBC9C9F40F2BAA56FA5FB
S1130100F490055A2AF75C936B6CF9676DC11BFC7C
S1130110E0E40D47FEF520E6B500D0ED902E030097
S1130120943577050080841E080000204E0A0000E4
S113013000C80C333333330F986E12831141EF8DA3
S11301402114893BE65516CFFEE6DB18D1844B38E3
S11301501BF77C1D901DA4BBE424203284725E2214
S11301608100C9F124ECA1E53D278E0411241FBEB2
S1130170CFEFD8E0DEBFCDBF11E0A0E0B1E0E0ED0D
S1130180FBE102C005900D92AE33B107D9F721E02F
S1130190AEE3B1E001C01D92A03BB207E1F710E06D
S11301A0C6EBD0E004C02197FE010E942E0CC53B93
S11301B0D107C9F70E94CC030C94E60D0C940000FF
S11301C08EE391E00C94660180E28AB91BB85D98D5
S11301D00895BF92CF92DF92EF92FF920F931F93F5
S11301E0CF93DF9300D000D0CDB7DEB78C015D98FC
S11301F08AE08A95F1F700C05D9AEAE6EA95F1F79C
S113020000C05D984E9BFECF109285001092840032
S1130210609184007091850080E090E00E94D30A90
S11302209B01AC0199B1F92FF074BF2E96FDFACF62
S11302308091840090918500BC0180E090E0298346
S11302403A834B835C830E94D30A29813A814B8190
S11302505C810E94BE0920E030E040E05FE30E9440
S11302608A0B6B017C0120E030E445EB56E40E94EC
S1130270850B1816E4F020E030E048E652E4C701AC
S1130280B6010E942B0AF8016483758386839783E1
S11302908B2D0F900F900F900F90DF91CF911F91A6
S11302A00F91FF90EF90DF90CF90BF90089560E0A2
S11302B071E088EA91E00E9433066DE071E088EA1B
S11302C091E00E943306BB24B394E2CF17B880E3D5
S11302D088B91092B90088E98093B800089584EA37
S11302E08093BC008091BC0087FFFCCF8091B90053
S11302F0887F883021F0803111F081E00895609387
S1130300BB0084E88093BC008091BC0087FFFCCFD5
S11303108091B900887F883111F0803471F780E0D2
S113032008956093BB0084E88093BC008091BC0076
S113033087FFFCCF9091B900987F983121F081E03C
S1130340903409F0089580E008950F931F9384EC8E
S11303508093BC000E94230360933F01709340018B
S1130360809341019093420115C00E9423030091A0
S11303703F01109140012091410130914201DC0183
S1130380CB01801B910BA20BB30B8A3F9105A105F6
S1130390B10548F48091BC0087FFE7CF8091BB0092
S11303A01F910F9108950E94230360933F0170935E
S11303B0400180934101909342018091BB001F91C1
S11303C00F9108950F931F9384E88093BC000E94BB
S11303D0230360933F017093400180934101909304
S11303E0420115C00E94230300913F011091400176
S11303F02091410130914201DC01CB01801B910B22
S1130400A20BB30B8A3F9105A105B10548F4809175
S1130410BC0087FFE7CF8091BB001F910F91089527
S11304200E94230360933F01709340018093410134
S11304309093420180E01F910F91089584E9809385
S1130440BC0008951F920F920FB60F9211248F9340
S11304509F93AF93BF938091980190919901A0913C
S11304609A01B0919B010196A11DB11D8093980141
S113047090939901A0939A01B0939B01BF91AF917E
S11304809F918F910F900FBE0F901F9018951F9200
S11304900F920FB60F9211240F900FBE0F901F9062
S11304A01895CF938FE39CE90197F1F700C0000002
S11304B0259A2D9A16BC10928500109284008DB353
S11304C083608DBB809169008F608093690084B5DF
S11304D0826084BD8091800088608093800089EF71
S11304E087BD8FEF809389008093880080916E0090
S11304F0826080936E0080916F00826080936F00B1
S113050085B5836085BD8091810082608093810080
S1130510789488EA91E00E9422068FE39CE901978F
S1130520F1F700C000006AE583E491E00E9403064D
S1130530882309F47AC0C0E08FE39CE90197F1F7BE
S113054000C000006BE587E591E00E940306882364
S113055009F45DC08FE39CE90197F1F700C0000046
S11305606CE58BE691E00E940306882309F441C000
S11305708FE39CE90197F1F700C000006DE58FE778
S113058091E00E940306882349F08FE39CE90197D8
S1130590F1F700C00000CC23B1F0FFCF65E271E0B9
S11305A088EA91E00E9433066DE071E088EA91E008
S11305B00E943306C1E08FE39CE90197F1F700C084
S11305C00000C111EACF84E090E0909397018093FA
S11305D09601109295011092940181E08093A501F7
S11305E01092A6018DE991E00E94E4002D98CF912C
S11305F008956EE171E088EA91E00E9433066DE0AF
S113060071E088EA91E00E943306C1E0B1CF67E16E
S113061071E088EA91E00E9433066DE071E088EAB7
S113062091E00E943306C1E095CF60E171E088EA71
S113063091E00E9433066DE071E088EA91E00E9447
S11306403306C1E079CFF8946091980170919901D3
S113065080919A0190919B01789408954F925F92B2
S11306606F927F928F929F92AF92BF92CF92DF92BE
S1130670EF92FF920F931F93CF93DF93CDB7DEB723
S1130680C055D1090FB6F894DEBF0FBECDBF20917F
S1130690960130919701121613060CF079C02A01C5
S11306A07B018C01612C712CDE0111964D01CE0170
S11306B08F5B9F4F6C018CE2A82E81E0B82ED20193
S11306C0EC911196FC91B2E04B0E511CD7014C9168
S11306D011965C91119712966C91129713967C91D6
S11306E0B4E0EB0EF11CD8018C9111969C911197FA
S11306F012962C91129713963C910C5F1F4FFF9307
S1130700EF937F936F935F934F933F932F939F93B5
S11307108F937F926F92BF92AF92DF92CF920E949B
S1130720650DB601C4010E94170DBFEF6B1A7B0A59
S11307300FB6F894DEBF0FBECDBF809196019091A5
S11307409701681679060CF4BACFB40188EA91E0EF
S11307500E9433066DE071E088EA91E00E9433065E
S1130760C05BDF4F0FB6F894DEBF0FBECDBFDF9185
S1130770CF911F910F91FF90EF90DF90CF90BF909A
S1130780AF909F908F907F906F905F904F9008955F
S1130790CE0101964C01D9CFCF93DF9300D000D086
S11307A000D0CDB7DEB70E94510282E080939C0155
S11307B08230F1F72DB73EB73E832D83F8944090F5
S11307C098015090990160909A0170909B017894DF
S11307D080919601909197019C01220F331F220F63
S11307E0331F4DB75EB7421B530B0FB6F8945EBF71
S11307F00FBE4DBFEDB7FEB731964F01421B530BF1
S11308000FB6F8945EBF0FBE4DBFEDB7FEB731967D
S11308105F01880F991F2DB73EB7281B390B0FB600
S1130820F8943EBF0FBE2DBF4DB75EB74F5F5F4F0D
S11308306A018DE991E00E94E9008091A501882375
S113084009F44FC0809196019091970118161906EA
S11308500CF047C003E411E01401BA82A982DC82DF
S1130860CB82E12CF12CC8010E94F705C8010E943B
S1130870EB04F10161937193819391931F01C8017A
S11308800E94B404E981FA816193719381939193F5
S1130890FA83E9836091A1017091A2018091A3017F
S11308A09091A40120E030E040E05FE30E94BF09A2
S11308B00E949D0AEB81FC8161937193FC83EB831D
S11308C0A601B501C4010E942E03FFEFEF1AFF0A2F
S11308D00C5E1F4F8091960190919701E816F906DE
S11308E014F2F8948091980190919901A0919A0141
S11308F0B0919B01789484199509A609B7098B3F97
S11309009105A105B10568F32D813E810FB6F894D8
S11309103EBF0FBE2DBF80919C014ACFCF93DF9382
S113092060E483E991E00E94E000C3E4D1E0CE01F9
S11309300E94A204649681E0C339D807C1F7DF910D
S1130940CF910895FC01108282E081831582148284
S113095013821282178216821186108613861286DB
S113096087EA91E00C946601CF93FC016281738164
S1130970C181072E000C880B990BCC23A1F00E9497
S1130980D50A2AE037ED43EA5CE30E948A0BC130C2
S113099041F023E333E948E853E40E94BE09C3303D
S11309A031F0CF9108950E94D50ACF91089520E0A7
S11309B030E040E151E40E948A0B20E030E040EA5C
S11309C050E40E942B0A20E030E040E052E40E9410
S11309D0BF09CF910895CF93FC0164817581C181D2
S11309E0072E000C880B990BCC23A1F00E94D50A8A
S11309F02AE037ED43EA5CE30E948A0BC13041F000
S1130A0023E333E948E853E40E94BE09C33031F0DC
S1130A10CF9108950E94D50ACF91089520E030E047
S1130A2040E151E40E948A0B20E030E040EA50E4C7
S1130A300E942B0A20E030E040E052E40E94BF090B
S1130A40CF910895CF92DF92EF92FF920F931F936D
S1130A50CF93DF936C01162FEA01FC016081660FCE
S1130A6087EA91E00E946F01882351F080E0DF91D2
S1130A70CF911F910F91FF90EF90DF90CF90089549
S1130A80612F87EA91E00E949101F6016081660F6F
S1130A906F5F87EA91E00E946F018FE99FE0019701
S1130AA0F1F700C0000087EA91E00E94A501082F39
S1130AB087EA91E00E94A501F82E87EA91E00E945E
S1130AC0E201E82E87EA91E00E941E02F60190817D
S1130AD0990F692F28E087E003C0660F215031F099
S1130AE067FFFBCF660F68272150D1F7612728E005
S1130AF087E003C0660F215031F067FFFBCF660F1C
S1130B0068272150D1F79F5F692798E087E003C0E9
S1130B10660F915031F067FFFBCF660F6827915045
S1130B20D1F7602798E087E003C0660F915031F059
S1130B3067FFFBCF660F68279150D1F76F2598E0C8
S1130B4087E003C0660F915031F067FFFBCF660F5B
S1130B5068279150D1F7E61289CF10E01F29198335
S1130B60088381E084CF0F931F93CF93DF9300D04A
S1130B70CDB7DEB78C01AE014F5F5F4F67E00E94D7
S1130B802205882341F089819A8197FD0BC0F801E1
S1130B909583848381E00F900F90DF91CF911F9113
S1130BA00F91089580E00F900F90DF91CF911F91E6
S1130BB00F9108950F931F93CF93DF9300D0CDB778
S1130BC0DEB78C01AE014F5F5F4F66E00E942205E5
S1130BD0882331F089819A81F8019383828381E0AB
S1130BE00F900F90DF91CF911F910F910895CF93A4
S1130BF0DF93EC010E94B305CE010E94DA0581E087
S1130C00DF91CF9108950F931F93CF93DF9300D07B
S1130C10CDB7DEB78C01FC016083AE014F5F5F4F3F
S1130C206EE20E9422058111898191E0F801208100
S1130C30281390E0892F0F900F90DF91CF911F918F
S1130C400F9108951092C50087E68093C400E1ECEB
S1130C50F0E088E1808386E08093C2008081806830
S1130C60808378940895FB019081992351F0319603
S1130C708091C00085FFFCCF9093C60091919111A3
S1130C80F7CF0895A3E1B0E0E8E4F6E00C94F70BA5
S1130C906C014B012A01FC0117821682838181FFBA
S1130CA043C3AE014F5F5F4F3A01F6019381F401F4
S1130CB093FD859193FF81914F01882309F430C3FB
S1130CC0853239F493FD859193FF81914F018532EB
S1130CD039F4B60190E00E942D0D52012501E5CFB3
S1130CE010E0F12C20E02032A0F48B3269F030F4D3
S1130CF0803259F0833269F420612CC08D3239F08E
S1130D00803339F4216026C02260246023C0286027
S1130D1021C027FD27C030ED380F3A3078F426FF84
S1130D2006C0FAE01F9F300D1124132F13C04AE0B0
S1130D30F49E300D1124F32E20620CC08E3221F467
S1130D4026FDEEC2206406C08C3611F4206802C071
S1130D50883641F4F40193FD859193FF81914F010D
S1130D608111C1CF9BEB980F933018F42061805E02
S1130D7006C09BE9980F933008F071C12F7E26FFBF
S1130D8016E02F73322E853619F42064322E08C0F3
S1130D90863621F4F22FF0683F2E02C01111115053
S1130DA037FE07C01C3350F4EE24E394E10E27E031
S1130DB00BC0183038F027E017E005C027E04CE3FB
S1130DC0E42E02C0212FE12C520144E0A40EB11CF8
S1130DD0F20160817181828193810E2DA3010E94B1
S1130DE0340C2C01098100FF02C003FF07C031FC51
S1130DF008C032FE09C030E2232E07C02DE2222EA5
S1130E0004C09BE2292E01C0212C802F8C7019F084
S1130E10211068C2A8C237FE0FC0E40C04FF04C04E
S1130E208A81813309F4EA941E1474F5F8E0FE15FE
S1130E3078F588E0E82E2CC036FC2AC0812F90E09B
S1130E40841595059CF02CEF42162FEF520674F092
S1130E50432D4068342E0AC0E2E0F0E0EC0FFD1FA1
S1130E60E10FF11D8081803319F411501111F4CF79
S1130E7037FE0EC0EE24E394E10E812F90E0481675
S1130E8059062CF4141904C0EE24E39401C010E0B4
S1130E9037FE06C01414150434F4C201019605C0CB
S1130EA085E090E002C081E090E0211001961123DA
S1130EB031F0212F30E02F5F3F4F820F931F2F2DF2
S1130EC030E08217930714F4F81A01C0F12C832D33
S1130ED0897049F4FF2039F0B60180E290E00E9465
S1130EE02D0DFA94F7CF222029F0B601822D90E03F
S1130EF00E942D0D33FC09C0FF2039F0B60180E3B8
S1130F0090E00E942D0DFA94F7CF37FE5AC0942D2D
S1130F10852D57FE02C090E080E0292E382E20E077
S1130F2030E0A2014E1951095D874C87A201421994
S1130F3053095F874E87612F70E044275527461B6E
S1130F40570B598B488B5FEF2516350649F4B601CC
S1130F508EE290E02A8B3B8B0E942D0D3B892A89DF
S1130F60421453046CF04C855D854215530544F4DA
S1130F70EE85FF85E20FF31FE60DF71D818101C0A9
S1130F8080E351E0251A31082F5F3F4F4889598982
S1130F90241635064CF0B60190E02A8B3B8B0E9458
S1130FA02D0D2A893B89CFCF2414350439F49A8135
S1130FB0963318F4953311F404FF81E3B60190E0FD
S1130FC04BC08A81813309F00F7EB60190E00E9404
S1130FD02D0D111105C034FC18C085E690E017C032
S1130FE0B6018EE290E00E942D0D82E0EE24E3949F
S1130FF0E80EF301E80FF11D8081B60190E00E9434
S11310002D0D11508E2D91F7E6CF85E490E0B601B9
S11310100E942D0D57FC05C04114510439F404FFFE
S113102005C05194419451088DE201C08BE2B60190
S113103090E00E942D0D80E39AE0491651042CF0B3
S11310408F5F5AE0451A5108F7CFB60190E00E942D
S11310502D0DB601C201C0960E942D0D57C18336D5
S113106031F0833779F0833509F058C021C052013B
S1131070E2E0AE0EB11CF2018081898301E010E050
S1131080230114C05201F2E0AF0EB11CF201408002
S1131090518026FF03C0612F70E002C06FEF7FEF25
S11310A0C2012A8B0E94220D8C012A892F7715C038
S11310B05201F2E0AF0EB11CF2014080518026FFD4
S11310C003C0612F70E002C06FEF7FEFC2012A8B73
S11310D00E940C0D8C012A892068322E23FD1AC02F
S11310E08F2D90E008171907A8F4B60180E290E06C
S11310F00E942D0DFA94F4CFF20137FC859137FE4E
S113110081912F01B60190E00E942D0DF110FA9407
S1131110015011090115110579F7F8C0843611F051
S1131120893659F5520127FF09C0F4E0AF0EB11C0E
S1131130F20160817181828193810AC0F2E0AF0E75
S1131140B11CF20160817181072E000C880B990B90
S11311502F76322E97FF09C09095809570956195F2
S11311607F4F8F4F9F4F2068322E2AE030E0A3013B
S11311700E94880DE82EE6183FC0022F853721F41F
S11311800F7E2AE030E01DC0097F8F3691F018F4FD
S1131190883559F0C5C0803719F0883711F0C0C0C0
S11311A0006104FF09C0046007C024FF08C0066092
S11311B006C028E030E005C020E130E002C020E1B4
S11311C032E0520107FF09C0F4E0AF0EB11CF20196
S11311D0608171818281938108C0F2E0AF0EB11CFD
S11311E0F2016081718180E090E0A3010E94880D8A
S11311F0E82EE6180F77302E36FE0BC0332D3E7FD7
S1131200E11650F434FE0AC032FC08C0332D3E7E91
S113121005C00E2D332D03C00E2D01C0012F34FF48
S11312200CC0FE01EE0DF11D8081803311F4397E76
S113123008C032FF05C00E5F04C0832F867809F012
S11312400F5F33FD13C030FF06C01E2D0F1518F4B9
S11312501F0D101B0F2D0F1568F4B60180E290E0EE
S11312603B8B0E942D0D0F5F3B89F5CF0F1510F4BA
S1131270F01A01C0F12C34FF12C0B60180E390E0F3
S11312803B8B0E942D0D3B8932FF17C031FD03C0FB
S113129088E790E002C088E590E0B6010CC0832F97
S11312A0867859F031FF02C08BE201C080E237FD3D
S11312B08DE2B60190E00E942D0DE11638F4B601DE
S11312C080E390E00E942D0D1150F7CFEA94F301D2
S11312D0EE0DF11D8081B60190E00E942D0DE1100C
S11312E0F5CF14C0F4E0FF1558F584E0F81A33FE86
S11312F01EC0211026C003FF2AC008E610E0F32D0B
S1131300F0713F2EF8018491811124C0FF2009F46B
S1131310E5CCB60180E290E00E942D0DFA94F6CF60
S1131320F6018681978126C08FEF9FEF23C0B60117
S113133080E290E00E942D0DFA94F110F8CFD9CFFD
S1131340F12CB601822D90E00E942D0DD4CF0CE635
S113135010E0D5CF31108052B60190E00E942D0DDF
S11313600F5F1F4FCFCF23E02F1510F483E0BECFC4
S1131370F12CC1CF6396E2E10C94130C5058BB27B7
S1131380AA270E94D6090C944B0B0E943D0B38F0FF
S11313900E94440B20F039F49F3F19F426F40C9476
S11313A03A0B0EF4E095E7FB0C94340BE92F0E9402
S11313B05C0B58F3BA17620773078407950720F08C
S11313C079F4A6F50C947E0B0EF4E0950B2EBA2F4F
S11313D0A02D0B01B90190010C01CA01A001112437
S11313E0FF27591B99F0593F50F4503E68F11A16E3
S11313F0F040A22F232F342F4427585FF3CF469574
S113140037952795A795F0405395C9F77EF41F1695
S1131410BA0B620B730B840BBAF09150A1F0FF0F5F
S1131420BB1F661F771F881FC2F70EC0BA0F621F4B
S1131430731F841F48F4879577956795B795F7953B
S11314409E3F08F0B0CF9395880F08F09927EE0FD0
S11314509795879508950E943F0A0C944B0B0E9420
S1131460440B58F00E943D0B40F029F45F3F29F0F3
S11314700C94340B51110C947F0B0C943A0B0E9476
S11314805C0B68F39923B1F3552391F3951B550B2A
S1131490BB27AA2762177307840738F09F5F5F4F43
S11314A0220F331F441FAA1FA9F335D00E2E3AF082
S11314B0E0E832D091505040E695001CCAF72BD09A
S11314C0FE2F29D0660F771F881FBB1F26173707EB
S11314D04807AB07B0E809F0BB0B802DBF01FF271D
S11314E093585F4F3AF09E3F510578F00C94340BBB
S11314F00C947F0B5F3FE4F3983ED4F38695779585
S11315006795B795F7959F5FC9F7880F911D9695D5
S1131510879597F90895E1E0660F771F881FBB1F31
S1131520621773078407BA0720F0621B730B840BDE
S1131530BA0BEE1F88F7E09508950E94A40A6894F8
S1131540B1110C947F0B08950E94640B88F09F578F
S113155098F0B92F9927B751B0F0E1F0660F771FD3
S1131560881F991F1AF0BA95C9F714C0B13091F0C9
S11315700E947E0BB1E008950C947E0B672F782FA8
S11315808827B85F39F0B93FCCF38695779567958E
S1131590B395D9F73EF490958095709561957F4FFA
S11315A08F4F9F4F0895E89409C097FB3EF49095A0
S11315B08095709561957F4F8F4F9F4F9923A9F028
S11315C0F92F96E9BB279395F695879577956795B7
S11315D0B795F111F8CFFAF4BB0F11F460FF1BC0FB
S11315E06F5F7F4F8F4F9F4F16C0882311F096E98E
S11315F011C0772321F09EE8872F762F05C066233C
S113160071F096E8862F70E060E02AF09A95660FF4
S1131610771F881FDAF7880F9695879597F90895AD
S1131620990F0008550FAA0BE0E8FEEF16161706EF
S1131630E807F907C0F012161306E407F50798F057
S1131640621B730B840B950B39F40A2661F0232B70
S1131650242B252B21F408950A2609F4A140A695EC
S11316608FEF811D811D089597F99F6780E870E0D1
S113167060E008959FEF80EC089500240A94161604
S1131680170618060906089500240A94121613066C
S1131690140605060895092E0394000C11F48823FA
S11316A052F0BB0F40F4BF2B11F460FF04C06F5F16
S11316B07F4F8F4F9F4F089557FD9058440F551FEC
S11316C059F05F3F71F04795880F97FB991F61F0C0
S11316D09F3F79F087950895121613061406551F37
S11316E0F2CF4695F1DF08C0161617061806991FA3
S11316F0F1CF86957105610508940895E894BB2798
S113170066277727CB0197F908950E94100B08F4F8
S11317108FEF08950E949D0B0C944B0B0E943D0B80
S113172038F00E94440B20F0952311F00C94340BF4
S11317300C943A0B11240C947F0B0E945C0B70F3F5
S1131740959FC1F3950F50E0551F629FF001729F62
S1131750BB27F00DB11D639FAA27F00DB11DAA1F71
S1131760649F6627B00DA11D661F829F2227B00DBE
S1131770A11D621F739FB00DA11D621F839FA00D49
S1131780611D221F749F3327A00D611D231F849F99
S1131790600D211D822F762F6A2F11249F575040F0
S11317A09AF0F1F088234AF0EE0FFF1FBB1F661F6B
S11317B0771F881F91505040A9F79E3F510580F034
S11317C00C94340B0C947F0B5F3FE4F3983ED4F3FA
S11317D0869577956795B795F795E7959F5FC1F7D8
S11317E0FE2B880F911D9695879597F908952F9252
S11317F03F924F925F926F927F928F929F92AF929D
S1131800BF92CF92DF92EF92FF920F931F93CF93E9
S1131810DF93CDB7DEB7CA1BDB0B0FB6F894DEBF80
S11318200FBECDBF09942A88398848885F846E84A6
S11318307D848C849B84AA84B984C884DF80EE80F0
S1131840FD800C811B81AA81B981CE0FD11D0FB6F9
S1131850F894DEBF0FBECDBFED010895EE0FFF1F5C
S11318600590F491E02D0994283008F027E03327FF
S1131870DA01990F311D87FD9160009661057105AC
S113188039F432602E5F3D9330E32A95E1F70895F1
S11318909F3F30F080387105610509F03C5F3C5F83
S11318A03D93913008F08068911DDF93CF931F938F
S11318B00F93FF92EF92192F987F9695E92F9695A3
S11318C09695E90FFF27E653FF4F99273327EE2418
S11318D0FF24A701E70105900894079428F4360F24
S11318E0E71EF81E491F511D660F771F881F991F99
S11318F00694A1F70590079428F4E70EF81E491FF3
S1131900561FC11D770F881F991F661F0694A1F7E4
S11319100590079428F4F80E491F561FC71FD11DC0
S1131920880F991F661F771F0694A1F705900794E7
S113193020F4490F561FC71FD81F990F661F771F22
S1131940881F0694A9F784911095177041F0D695D5
S1131950C79557954795F794E7941A95C1F7E0E72B
S1131960F0E06894159015913591659195910590E5
S11319707FE27395E118F10A430B560BC90BD009AA
S1131980C0F7E10CF11E431F561FC91FD01D7EF482
S1131990703311F48A95E6CFE894015030F0080FC3
S11319A00AF40027021708F4202F2395022F7A3314
S11319B028F079E37D932A95E9F710C07D932A9561
S11319C089F6069497956795379517951794E118B6
S11319D0F10A430B560BC90BD00998F023957E915D
S11319E073957A3308F070E37C932013B8F77E91F3
S11319F070617D9330F0839571E37D9370E32A9554
S1131A00E1F71124EF90FF900F911F91CF91DF9197
S1131A10992787FD90950895FC01059061507040C9
S1131A200110D8F7809590958E0F9F1F0895FB01A4
S1131A30DC010D900020E9F7119701900D92002030
S1131A40E1F70895FC016150704001900110D8F74E
S1131A50809590958E0F9F1F08950F931F93CF939A
S1131A60DF93FB01238121FD03C08FEF9FEF28C08B
S1131A7022FF16C0468157812481358142175307BE
S1131A8044F4A081B1819D012F5F3F4F31832083B6
S1131A908C93268137812F5F3F4F3783268310C075
S1131AA0EB01092F182F0084F185E02D0995892B6E
S1131AB0E1F68E819F8101969F838E83812F902FE3
S1131AC0DF91CF911F910F910895AEE0B0E0EBE666
S1131AD0FDE00C94050C0D891E8986E08C831A8325
S1131AE009838FEF9FE79E838D83AE01475E5F4F2F
S1131AF06F89788DCE0101960E9442062F81388528
S1131B00F801E20FF31F10822E96E4E00C94210CEE
S1131B10FA01AA27283051F1203181F1E8946F931A
S1131B206E7F6E5F7F4F8F4F9F4FAF4FB1E03ED0C0
S1131B30B4E03CD0670F781F891F9A1FA11D680F5E
S1131B40791F8A1F911DA11D6A0F711D811D911D91
S1131B50A11D20D009F468943F912AE0269F112406
S1131B603019305D3193DEF6CF010895462F47706A
S1131B70405D4193B3E00FD0C9F7F6CF462F4F70C5
S1131B80405D4A3318F0495D31FD4052419302D023
S1131B90A9F7EACFB4E0A6959795879577956795C9
S1131BA0BA95C9F700976105710508959B01AC01C9
S1131BB00A2E06945795479537952795BA95C9F7F0
S1131BC0620F731F841F951FA01D0895F894FFCF03
S1131BD04F7574206F662072616E6765000D0A0090
S1131BE06E6F74203561006E6F74203562006E6F05
S1131BF074203563006E6F74203564005425642CA2
S1111C00252E31662C252E31662C25690A000E
S9030000FC
